{
  "_format": "hh-sol-artifact-1",
  "contractName": "UnionLotto",
  "sourceName": "contracts/UnionLotto.sol",
  "abi": [
    {
      "inputs": [
        {
          "internalType": "address",
          "name": "_usdTokenAddress",
          "type": "address"
        },
        {
          "internalType": "address",
          "name": "_randomGeneratorAddress",
          "type": "address"
        },
        {
          "internalType": "address",
          "name": "_treasuryAddress",
          "type": "address"
        }
      ],
      "stateMutability": "nonpayable",
      "type": "constructor"
    },
    {
      "inputs": [
        {
          "internalType": "address",
          "name": "target",
          "type": "address"
        }
      ],
      "name": "AddressEmptyCode",
      "type": "error"
    },
    {
      "inputs": [
        {
          "internalType": "address",
          "name": "account",
          "type": "address"
        }
      ],
      "name": "AddressInsufficientBalance",
      "type": "error"
    },
    {
      "inputs": [],
      "name": "FailedInnerCall",
      "type": "error"
    },
    {
      "inputs": [
        {
          "internalType": "address",
          "name": "owner",
          "type": "address"
        }
      ],
      "name": "OwnableInvalidOwner",
      "type": "error"
    },
    {
      "inputs": [
        {
          "internalType": "address",
          "name": "account",
          "type": "address"
        }
      ],
      "name": "OwnableUnauthorizedAccount",
      "type": "error"
    },
    {
      "inputs": [],
      "name": "ReentrancyGuardReentrantCall",
      "type": "error"
    },
    {
      "inputs": [
        {
          "internalType": "address",
          "name": "token",
          "type": "address"
        }
      ],
      "name": "SafeERC20FailedOperation",
      "type": "error"
    },
    {
      "anonymous": false,
      "inputs": [
        {
          "indexed": true,
          "internalType": "uint256",
          "name": "startTime",
          "type": "uint256"
        },
        {
          "indexed": false,
          "internalType": "uint256",
          "name": "finalNumber",
          "type": "uint256"
        },
        {
          "indexed": false,
          "internalType": "uint256",
          "name": "countWinningTickets",
          "type": "uint256"
        }
      ],
      "name": "LotteryDrawn",
      "type": "event"
    },
    {
      "anonymous": false,
      "inputs": [
        {
          "indexed": true,
          "internalType": "uint256",
          "name": "startTime",
          "type": "uint256"
        }
      ],
      "name": "LotterySet",
      "type": "event"
    },
    {
      "anonymous": false,
      "inputs": [
        {
          "indexed": true,
          "internalType": "address",
          "name": "randomGenerator",
          "type": "address"
        }
      ],
      "name": "NewRandomGenerator",
      "type": "event"
    },
    {
      "anonymous": false,
      "inputs": [
        {
          "indexed": true,
          "internalType": "address",
          "name": "treasury",
          "type": "address"
        }
      ],
      "name": "NewTreasuryAddress",
      "type": "event"
    },
    {
      "anonymous": false,
      "inputs": [
        {
          "indexed": true,
          "internalType": "address",
          "name": "previousOwner",
          "type": "address"
        },
        {
          "indexed": true,
          "internalType": "address",
          "name": "newOwner",
          "type": "address"
        }
      ],
      "name": "OwnershipTransferred",
      "type": "event"
    },
    {
      "anonymous": false,
      "inputs": [
        {
          "indexed": true,
          "internalType": "address",
          "name": "claimer",
          "type": "address"
        },
        {
          "indexed": false,
          "internalType": "uint256",
          "name": "amount",
          "type": "uint256"
        }
      ],
      "name": "TicketsClaim",
      "type": "event"
    },
    {
      "anonymous": false,
      "inputs": [
        {
          "indexed": true,
          "internalType": "address",
          "name": "buyer",
          "type": "address"
        },
        {
          "indexed": false,
          "internalType": "uint256",
          "name": "numberTickets",
          "type": "uint256"
        }
      ],
      "name": "TicketsPurchase",
      "type": "event"
    },
    {
      "inputs": [
        {
          "internalType": "uint256[]",
          "name": "_ticketNumbers",
          "type": "uint256[]"
        }
      ],
      "name": "buyTickets",
      "outputs": [],
      "stateMutability": "nonpayable",
      "type": "function"
    },
    {
      "inputs": [
        {
          "internalType": "uint256[]",
          "name": "_ticketIds",
          "type": "uint256[]"
        }
      ],
      "name": "claimTickets",
      "outputs": [],
      "stateMutability": "nonpayable",
      "type": "function"
    },
    {
      "inputs": [],
      "name": "closeBlockNumber",
      "outputs": [
        {
          "internalType": "uint256",
          "name": "",
          "type": "uint256"
        }
      ],
      "stateMutability": "view",
      "type": "function"
    },
    {
      "inputs": [],
      "name": "closeLottery",
      "outputs": [],
      "stateMutability": "nonpayable",
      "type": "function"
    },
    {
      "inputs": [],
      "name": "currentTicketId",
      "outputs": [
        {
          "internalType": "uint256",
          "name": "",
          "type": "uint256"
        }
      ],
      "stateMutability": "view",
      "type": "function"
    },
    {
      "inputs": [],
      "name": "endRewardTime",
      "outputs": [
        {
          "internalType": "uint256",
          "name": "",
          "type": "uint256"
        }
      ],
      "stateMutability": "view",
      "type": "function"
    },
    {
      "inputs": [],
      "name": "endTime",
      "outputs": [
        {
          "internalType": "uint256",
          "name": "",
          "type": "uint256"
        }
      ],
      "stateMutability": "view",
      "type": "function"
    },
    {
      "inputs": [],
      "name": "finalNumber",
      "outputs": [
        {
          "internalType": "uint256",
          "name": "",
          "type": "uint256"
        }
      ],
      "stateMutability": "view",
      "type": "function"
    },
    {
      "inputs": [
        {
          "internalType": "uint256",
          "name": "randomNumber",
          "type": "uint256"
        }
      ],
      "name": "getRandomTicketNumber",
      "outputs": [
        {
          "internalType": "uint256",
          "name": "",
          "type": "uint256"
        }
      ],
      "stateMutability": "pure",
      "type": "function"
    },
    {
      "inputs": [],
      "name": "jackpotAmount",
      "outputs": [
        {
          "internalType": "uint256",
          "name": "",
          "type": "uint256"
        }
      ],
      "stateMutability": "view",
      "type": "function"
    },
    {
      "inputs": [],
      "name": "lotteryLength",
      "outputs": [
        {
          "internalType": "uint256",
          "name": "",
          "type": "uint256"
        }
      ],
      "stateMutability": "view",
      "type": "function"
    },
    {
      "inputs": [],
      "name": "owner",
      "outputs": [
        {
          "internalType": "address",
          "name": "",
          "type": "address"
        }
      ],
      "stateMutability": "view",
      "type": "function"
    },
    {
      "inputs": [],
      "name": "randomGenerator",
      "outputs": [
        {
          "internalType": "contract IRandomNumberGenerator",
          "name": "",
          "type": "address"
        }
      ],
      "stateMutability": "view",
      "type": "function"
    },
    {
      "inputs": [],
      "name": "renounceOwnership",
      "outputs": [],
      "stateMutability": "nonpayable",
      "type": "function"
    },
    {
      "inputs": [
        {
          "internalType": "uint256",
          "name": "seedHash",
          "type": "uint256"
        }
      ],
      "name": "requestRandomness",
      "outputs": [],
      "stateMutability": "nonpayable",
      "type": "function"
    },
    {
      "inputs": [],
      "name": "requestRandomnessBlockNumber",
      "outputs": [
        {
          "internalType": "uint256",
          "name": "",
          "type": "uint256"
        }
      ],
      "stateMutability": "view",
      "type": "function"
    },
    {
      "inputs": [
        {
          "internalType": "uint256",
          "name": "_startTime",
          "type": "uint256"
        },
        {
          "internalType": "uint256",
          "name": "_endTime",
          "type": "uint256"
        }
      ],
      "name": "resetForNewLottery",
      "outputs": [],
      "stateMutability": "nonpayable",
      "type": "function"
    },
    {
      "inputs": [
        {
          "internalType": "uint256",
          "name": "seed",
          "type": "uint256"
        }
      ],
      "name": "revealRandomness",
      "outputs": [],
      "stateMutability": "nonpayable",
      "type": "function"
    },
    {
      "inputs": [],
      "name": "rewardingLength",
      "outputs": [
        {
          "internalType": "uint256",
          "name": "",
          "type": "uint256"
        }
      ],
      "stateMutability": "view",
      "type": "function"
    },
    {
      "inputs": [
        {
          "internalType": "uint256",
          "name": "",
          "type": "uint256"
        }
      ],
      "name": "rewardsBreakdown",
      "outputs": [
        {
          "internalType": "uint256",
          "name": "",
          "type": "uint256"
        }
      ],
      "stateMutability": "view",
      "type": "function"
    },
    {
      "inputs": [
        {
          "internalType": "uint256",
          "name": "",
          "type": "uint256"
        }
      ],
      "name": "rewardsForBracket",
      "outputs": [
        {
          "internalType": "uint256",
          "name": "",
          "type": "uint256"
        }
      ],
      "stateMutability": "view",
      "type": "function"
    },
    {
      "inputs": [
        {
          "internalType": "uint256",
          "name": "_endRewardTime",
          "type": "uint256"
        }
      ],
      "name": "setEndRewardTime",
      "outputs": [],
      "stateMutability": "nonpayable",
      "type": "function"
    },
    {
      "inputs": [
        {
          "internalType": "uint256",
          "name": "_endTime",
          "type": "uint256"
        }
      ],
      "name": "setEndTime",
      "outputs": [],
      "stateMutability": "nonpayable",
      "type": "function"
    },
    {
      "inputs": [
        {
          "internalType": "address",
          "name": "_randomGeneratorAddress",
          "type": "address"
        }
      ],
      "name": "setRandomGenerator",
      "outputs": [],
      "stateMutability": "nonpayable",
      "type": "function"
    },
    {
      "inputs": [
        {
          "internalType": "uint256[6]",
          "name": "_rewardsBreakdown",
          "type": "uint256[6]"
        }
      ],
      "name": "setRewardsBreakdown",
      "outputs": [],
      "stateMutability": "nonpayable",
      "type": "function"
    },
    {
      "inputs": [
        {
          "internalType": "uint256",
          "name": "_startTime",
          "type": "uint256"
        }
      ],
      "name": "setStartTime",
      "outputs": [],
      "stateMutability": "nonpayable",
      "type": "function"
    },
    {
      "inputs": [
        {
          "internalType": "uint256",
          "name": "_ticketPrice",
          "type": "uint256"
        }
      ],
      "name": "setTicketPrice",
      "outputs": [],
      "stateMutability": "nonpayable",
      "type": "function"
    },
    {
      "inputs": [
        {
          "internalType": "address",
          "name": "_treasuryAddress",
          "type": "address"
        }
      ],
      "name": "setTreasuryAddresses",
      "outputs": [],
      "stateMutability": "nonpayable",
      "type": "function"
    },
    {
      "inputs": [
        {
          "internalType": "uint256",
          "name": "_treasuryFee",
          "type": "uint256"
        }
      ],
      "name": "setTreasuryFee",
      "outputs": [],
      "stateMutability": "nonpayable",
      "type": "function"
    },
    {
      "inputs": [
        {
          "internalType": "address",
          "name": "_usdTokenAddress",
          "type": "address"
        }
      ],
      "name": "setUSDToken",
      "outputs": [],
      "stateMutability": "nonpayable",
      "type": "function"
    },
    {
      "inputs": [],
      "name": "startLottery",
      "outputs": [],
      "stateMutability": "nonpayable",
      "type": "function"
    },
    {
      "inputs": [],
      "name": "startTime",
      "outputs": [
        {
          "internalType": "uint256",
          "name": "",
          "type": "uint256"
        }
      ],
      "stateMutability": "view",
      "type": "function"
    },
    {
      "inputs": [],
      "name": "status",
      "outputs": [
        {
          "internalType": "enum UnionLotto.Status",
          "name": "",
          "type": "uint8"
        }
      ],
      "stateMutability": "view",
      "type": "function"
    },
    {
      "inputs": [],
      "name": "ticketPrice",
      "outputs": [
        {
          "internalType": "uint256",
          "name": "",
          "type": "uint256"
        }
      ],
      "stateMutability": "view",
      "type": "function"
    },
    {
      "inputs": [
        {
          "internalType": "address",
          "name": "newOwner",
          "type": "address"
        }
      ],
      "name": "transferOwnership",
      "outputs": [],
      "stateMutability": "nonpayable",
      "type": "function"
    },
    {
      "inputs": [],
      "name": "treasuryAddress",
      "outputs": [
        {
          "internalType": "address",
          "name": "",
          "type": "address"
        }
      ],
      "stateMutability": "view",
      "type": "function"
    },
    {
      "inputs": [],
      "name": "treasuryFee",
      "outputs": [
        {
          "internalType": "uint256",
          "name": "",
          "type": "uint256"
        }
      ],
      "stateMutability": "view",
      "type": "function"
    },
    {
      "inputs": [],
      "name": "usdToken",
      "outputs": [
        {
          "internalType": "contract IERC20",
          "name": "",
          "type": "address"
        }
      ],
      "stateMutability": "view",
      "type": "function"
    },
    {
      "inputs": [
        {
          "internalType": "address",
          "name": "owner",
          "type": "address"
        }
      ],
      "name": "viewClaimableTicketsOfAddress",
      "outputs": [
        {
          "internalType": "uint256[]",
          "name": "",
          "type": "uint256[]"
        }
      ],
      "stateMutability": "view",
      "type": "function"
    },
    {
      "inputs": [],
      "name": "viewMyRewardsAmount",
      "outputs": [
        {
          "internalType": "uint256",
          "name": "",
          "type": "uint256"
        }
      ],
      "stateMutability": "view",
      "type": "function"
    },
    {
      "inputs": [],
      "name": "viewResult",
      "outputs": [
        {
          "internalType": "uint32[]",
          "name": "",
          "type": "uint32[]"
        }
      ],
      "stateMutability": "view",
      "type": "function"
    },
    {
      "inputs": [
        {
          "internalType": "uint256[]",
          "name": "_ticketIds",
          "type": "uint256[]"
        }
      ],
      "name": "viewRewardsAmount",
      "outputs": [
        {
          "internalType": "uint256",
          "name": "",
          "type": "uint256"
        }
      ],
      "stateMutability": "view",
      "type": "function"
    },
    {
      "inputs": [],
      "name": "viewRewardsBreakdown",
      "outputs": [
        {
          "internalType": "uint256[6]",
          "name": "",
          "type": "uint256[6]"
        }
      ],
      "stateMutability": "view",
      "type": "function"
    },
    {
      "inputs": [],
      "name": "viewRewardsForBracket",
      "outputs": [
        {
          "internalType": "uint256[6]",
          "name": "",
          "type": "uint256[6]"
        }
      ],
      "stateMutability": "view",
      "type": "function"
    },
    {
      "inputs": [
        {
          "internalType": "uint256",
          "name": "ticketId",
          "type": "uint256"
        }
      ],
      "name": "viewTicket",
      "outputs": [
        {
          "internalType": "uint32[]",
          "name": "",
          "type": "uint32[]"
        },
        {
          "internalType": "uint32",
          "name": "",
          "type": "uint32"
        },
        {
          "internalType": "address",
          "name": "",
          "type": "address"
        }
      ],
      "stateMutability": "view",
      "type": "function"
    },
    {
      "inputs": [
        {
          "internalType": "uint256",
          "name": "number",
          "type": "uint256"
        }
      ],
      "name": "viewTicketNumber",
      "outputs": [
        {
          "internalType": "uint32[]",
          "name": "",
          "type": "uint32[]"
        }
      ],
      "stateMutability": "pure",
      "type": "function"
    },
    {
      "inputs": [
        {
          "internalType": "address",
          "name": "owner",
          "type": "address"
        }
      ],
      "name": "viewTicketsOfAddress",
      "outputs": [
        {
          "internalType": "uint256[]",
          "name": "",
          "type": "uint256[]"
        }
      ],
      "stateMutability": "view",
      "type": "function"
    },
    {
      "inputs": [],
      "name": "withdrawAll",
      "outputs": [],
      "stateMutability": "nonpayable",
      "type": "function"
    }
  ],
  "bytecode": "0x60806040526001600255671bc16d674ec800006004556000600755600060085560006009556000600b5562069780600c5562026ac0600d556000600e60006101000a81548160ff0219169083600381111562000060576200005f620003d8565b5b02179055506040518060c00160405280600060ff168152602001600f60ff168152602001600f60ff168152602001600f60ff168152602001600f60ff168152602001602860ff168152506012906006620000bc9291906200036f565b506040518060c00160405280600060ff168152602001600060ff168152602001600060ff168152602001600060ff168152602001600060ff168152602001600060ff168152506018906006620001149291906200036f565b506000601e553480156200012757600080fd5b50604051620054993803806200549983398181016040528101906200014d919062000471565b336001600081905550600073ffffffffffffffffffffffffffffffffffffffff168173ffffffffffffffffffffffffffffffffffffffff1603620001cb5760006040517f1e4fbdf7000000000000000000000000000000000000000000000000000000008152600401620001c29190620004de565b60405180910390fd5b620001dc81620002a960201b60201c565b5082600560006101000a81548173ffffffffffffffffffffffffffffffffffffffff021916908373ffffffffffffffffffffffffffffffffffffffff16021790555081600660006101000a81548173ffffffffffffffffffffffffffffffffffffffff021916908373ffffffffffffffffffffffffffffffffffffffff16021790555080600360006101000a81548173ffffffffffffffffffffffffffffffffffffffff021916908373ffffffffffffffffffffffffffffffffffffffff160217905550505050620004fb565b6000600160009054906101000a900473ffffffffffffffffffffffffffffffffffffffff16905081600160006101000a81548173ffffffffffffffffffffffffffffffffffffffff021916908373ffffffffffffffffffffffffffffffffffffffff1602179055508173ffffffffffffffffffffffffffffffffffffffff168173ffffffffffffffffffffffffffffffffffffffff167f8be0079c531659141344cd1fd0a4f28419497f9722a3daafe3b4186f6b6457e060405160405180910390a35050565b8260068101928215620003a6579160200282015b82811115620003a5578251829060ff1690559160200191906001019062000383565b5b509050620003b59190620003b9565b5090565b5b80821115620003d4576000816000905550600101620003ba565b5090565b7f4e487b7100000000000000000000000000000000000000000000000000000000600052602160045260246000fd5b600080fd5b600073ffffffffffffffffffffffffffffffffffffffff82169050919050565b600062000439826200040c565b9050919050565b6200044b816200042c565b81146200045757600080fd5b50565b6000815190506200046b8162000440565b92915050565b6000806000606084860312156200048d576200048c62000407565b5b60006200049d868287016200045a565b9350506020620004b0868287016200045a565b9250506040620004c3868287016200045a565b9150509250925092565b620004d8816200042c565b82525050565b6000602082019050620004f56000830184620004cd565b92915050565b614f8e806200050b6000396000f3fe608060405234801561001057600080fd5b506004361061029f5760003560e01c8063715018a611610167578063cc32d176116100ce578063e76a052611610087578063e76a0526146107ba578063e94f6955146107d6578063ec573d1c146107f4578063f2fde38b14610810578063f897a22b1461082c578063fca6d0df1461084a5761029f565b8063cc32d1761461070c578063ccb98ffc1461072a578063d0fbe7fe14610746578063d75cd44414610762578063dae58da81461077e578063dcbad90d1461079c5761029f565b80638da5cb5b116101205780638da5cb5b1461063457806397ff1cac14610652578063b1eac37e14610682578063c079fead146106a0578063c5f956af146106be578063cba15a8e146106dc5761029f565b8063715018a6146105ae5780637363ae1f146105b857806377e741c7146105d457806378e97925146105f0578063853828b61461060e57806388c61855146106185761029f565b80633f5bffb71161020b5780635fea10c6116101c45780635fea10c6146104fe57806365d4517c1461051a578063686465b81461053857806368f5f2b0146105565780636b9a7d01146105725780636fd09816146105a45761029f565b80633f5bffb71461041657806342043170146104465780634704370c14610464578063477f4eaf1461049457806349c01d3f146104c45780634bc19fee146104e25761029f565b80631d0769ca1161025d5780631d0769ca14610354578063200d2ed214610384578063218fe3a5146103a25780633197cbb6146103be5780633cff0380146103dc5780633e0a322d146103fa5761029f565b806294cd31146102a457806302a24770146102c25780631209b1f6146102e057806315981650146102fe578063160344e21461031a5780631ca1502f14610324575b600080fd5b6102ac610868565b6040516102b99190613786565b60405180910390f35b6102ca6108b3565b6040516102d791906137b0565b60405180910390f35b6102e86108b9565b6040516102f591906137b0565b60405180910390f35b6103186004803603810190610313919061380b565b6108bf565b005b6103226108d1565b005b61033e6004803603810190610339919061380b565b610a70565b60405161034b9190613906565b60405180910390f35b61036e6004803603810190610369919061380b565b610b38565b60405161037b91906137b0565b60405180910390f35b61038c610b53565b604051610399919061399f565b60405180910390f35b6103bc60048036038101906103b79190613a18565b610b66565b005b6103c6610bb2565b6040516103d391906137b0565b60405180910390f35b6103e4610bb8565b6040516103f19190613906565b60405180910390f35b610414600480360381019061040f919061380b565b610c3f565b005b610430600480360381019061042b9190613a18565b610c51565b60405161043d9190613adc565b60405180910390f35b61044e610dff565b60405161045b91906137b0565b60405180910390f35b61047e60048036038101906104799190613a18565b610e05565b60405161048b9190613adc565b60405180910390f35b6104ae60048036038101906104a99190613c57565b610fda565b6040516104bb91906137b0565b60405180910390f35b6104cc6110bb565b6040516104d991906137b0565b60405180910390f35b6104fc60048036038101906104f79190613a18565b6110c1565b005b61051860048036038101906105139190613ca0565b611150565b005b6105226113bb565b60405161052f9190613786565b60405180910390f35b610540611406565b60405161054d91906137b0565b60405180910390f35b610570600480360381019061056b9190613d91565b61140c565b005b61058c6004803603810190610587919061380b565b61149f565b60405161059b93929190613ddc565b60405180910390f35b6105ac611637565b005b6105b66117dd565b005b6105d260048036038101906105cd919061380b565b6117f1565b005b6105ee60048036038101906105e9919061380b565b611a45565b005b6105f8611a57565b60405161060591906137b0565b60405180910390f35b610616611a5d565b005b610632600480360381019061062d9190613e75565b611bc5565b005b61063c61207d565b6040516106499190613ec2565b60405180910390f35b61066c6004803603810190610667919061380b565b6120a7565b60405161067991906137b0565b60405180910390f35b61068a6120c2565b60405161069791906137b0565b60405180910390f35b6106a86120c8565b6040516106b591906137b0565b60405180910390f35b6106c66120ce565b6040516106d39190613ec2565b60405180910390f35b6106f660048036038101906106f1919061380b565b6120f4565b60405161070391906137b0565b60405180910390f35b6107146122a9565b60405161072191906137b0565b60405180910390f35b610744600480360381019061073f919061380b565b6122af565b005b610760600480360381019061075b9190613e75565b6122c1565b005b61077c6004803603810190610777919061380b565b61279c565b005b610786612a41565b60405161079391906137b0565b60405180910390f35b6107a4612a47565b6040516107b19190613f3c565b60405180910390f35b6107d460048036038101906107cf919061380b565b612a6d565b005b6107de612a7f565b6040516107eb91906137b0565b60405180910390f35b61080e60048036038101906108099190613a18565b612a85565b005b61082a60048036038101906108259190613a18565b612b14565b005b610834612b9a565b6040516108419190613f78565b60405180910390f35b610852612bc0565b60405161085f91906137b0565b60405180910390f35b610870613652565b60186006806020026040519081016040528092919082600680156108a9576020028201915b815481526020019060010190808311610895575b5050505050905090565b60115481565b60045481565b6108c7612bd8565b8060048190555050565b6108da33612c5f565b1561091a576040517f08c379a000000000000000000000000000000000000000000000000000000000815260040161091190613ff0565b60405180910390fd5b3273ffffffffffffffffffffffffffffffffffffffff163373ffffffffffffffffffffffffffffffffffffffff1614610988576040517f08c379a000000000000000000000000000000000000000000000000000000000815260040161097f9061405c565b60405180910390fd5b6000600381111561099c5761099b613928565b5b600e60009054906101000a900460ff1660038111156109be576109bd613928565b5b146109fe576040517f08c379a00000000000000000000000000000000000000000000000000000000081526004016109f5906140c8565b60405180910390fd5b42600f541115610a43576040517f08c379a0000000000000000000000000000000000000000000000000000000008152600401610a3a9061415a565b60405180910390fd5b6001600e60006101000a81548160ff02191690836003811115610a6957610a68613928565b5b0217905550565b60606000600667ffffffffffffffff811115610a8f57610a8e613b14565b5b604051908082528060200260200182016040528015610abd5781602001602082028036833780820191505090505b50905060005b6006811015610b2e576001604285610adb91906141a9565b610ae59190614209565b828281518110610af857610af7614241565b5b602002602001019063ffffffff16908163ffffffff1681525050604284610b1f9190614270565b93508080600101915050610ac3565b5080915050919050565b60188160068110610b4857600080fd5b016000915090505481565b600e60009054906101000a900460ff1681565b610b6e612bd8565b80600560006101000a81548173ffffffffffffffffffffffffffffffffffffffff021916908373ffffffffffffffffffffffffffffffffffffffff16021790555050565b60105481565b6060600380811115610bcd57610bcc613928565b5b600e60009054906101000a900460ff166003811115610bef57610bee613928565b5b14610c2f576040517f08c379a0000000000000000000000000000000000000000000000000000000008152600401610c26906142ed565b60405180910390fd5b610c3a601e54610a70565b905090565b610c47612bd8565b80600f8190555050565b60606000600b5467ffffffffffffffff811115610c7157610c70613b14565b5b604051908082528060200260200182016040528015610c9f5781602001602082028036833780820191505090505b5090506000805b600b54811015610d53578473ffffffffffffffffffffffffffffffffffffffff16600a600083815260200190815260200160002060010160009054906101000a900473ffffffffffffffffffffffffffffffffffffffff1673ffffffffffffffffffffffffffffffffffffffff1603610d465780838380610d269061430d565b945081518110610d3957610d38614241565b5b6020026020010181815250505b8080600101915050610ca6565b5060008167ffffffffffffffff811115610d7057610d6f613b14565b5b604051908082528060200260200182016040528015610d9e5781602001602082028036833780820191505090505b50905060005b82811015610df357838181518110610dbf57610dbe614241565b5b6020026020010151828281518110610dda57610dd9614241565b5b6020026020010181815250508080600101915050610da4565b50809350505050919050565b600d5481565b60606000610e1283610c51565b90506000815167ffffffffffffffff811115610e3157610e30613b14565b5b604051908082528060200260200182016040528015610e5f5781602001602082028036833780820191505090505b5090506000805b8351811015610f2d576000600a6000868481518110610e8857610e87614241565b5b60200260200101518152602001908152602001600020600001601c9054906101000a900463ffffffff1663ffffffff169050600060188260068110610ed057610ecf614241565b5b01541115610f1f57848281518110610eeb57610eea614241565b5b6020026020010151848480610eff9061430d565b955081518110610f1257610f11614241565b5b6020026020010181815250505b508080600101915050610e66565b5060008167ffffffffffffffff811115610f4a57610f49613b14565b5b604051908082528060200260200182016040528015610f785781602001602082028036833780820191505090505b50905060005b82811015610fcd57838181518110610f9957610f98614241565b5b6020026020010151828281518110610fb457610fb3614241565b5b6020026020010181815250508080600101915050610f7e565b5080945050505050919050565b6000600380811115610fef57610fee613928565b5b600e60009054906101000a900460ff16600381111561101157611010613928565b5b14158061101f575060008251145b1561102d57600090506110b6565b6000805b83518110156110b0576018600a600086848151811061105357611052614241565b5b60200260200101518152602001908152602001600020600001601c9054906101000a900463ffffffff1663ffffffff166006811061109457611093614241565b5b0154826110a19190614355565b91508080600101915050611031565b50809150505b919050565b600c5481565b6110c9612bd8565b80600660006101000a81548173ffffffffffffffffffffffffffffffffffffffff021916908373ffffffffffffffffffffffffffffffffffffffff1602179055508073ffffffffffffffffffffffffffffffffffffffff167f383f8cb39dfa7c3fb901a460dd449ea924868f0a92ff03da64740fffa5f1de6260405160405180910390a250565b611158612bd8565b60038081111561116b5761116a613928565b5b600e60009054906101000a900460ff16600381111561118d5761118c613928565b5b036111d75760115442116111d6576040517f08c379a00000000000000000000000000000000000000000000000000000000081526004016111cd906143fb565b60405180910390fd5b5b6000821415806111e8575060008114155b611227576040517f08c379a000000000000000000000000000000000000000000000000000000000815260040161121e9061448d565b60405180910390fd5b6000811461124057600c548161123d91906144ad565b91505b428211611282576040517f08c379a000000000000000000000000000000000000000000000000000000000815260040161127990614553565b60405180910390fd5b6000600e60006101000a81548160ff021916908360038111156112a8576112a7613928565b5b021790555081600f81905550600c54826112c29190614355565b601081905550600d546010546112d89190614355565b6011819055506000600b81905550600560009054906101000a900473ffffffffffffffffffffffffffffffffffffffff1673ffffffffffffffffffffffffffffffffffffffff166370a08231306040518263ffffffff1660e01b81526004016113419190613ec2565b602060405180830381865afa15801561135e573d6000803e3d6000fd5b505050506040513d601f19601f820116820180604052508101906113829190614588565b600981905550600f547f931b31da73fd887ac2b49ca80ca85bcd1a4c2803b58f53d7d9fcc85ebec3b9fa60405160405180910390a25050565b6113c3613652565b60126006806020026040519081016040528092919082600680156113fc576020028201915b8154815260200190600101908083116113e8575b5050505050905090565b600b5481565b611414612bd8565b6000600381111561142857611427613928565b5b600e60009054906101000a900460ff16600381111561144a57611449613928565b5b1461148a576040517f08c379a000000000000000000000000000000000000000000000000000000000815260040161148190614601565b60405180910390fd5b80601290600661149b929190613674565b5050565b6060600080600b5484106114e8576040517f08c379a00000000000000000000000000000000000000000000000000000000081526004016114df9061466d565b60405180910390fd5b6000600a60008681526020019081526020016000206040518060600160405290816000820160009054906101000a90047bffffffffffffffffffffffffffffffffffffffffffffffffffffffff167bffffffffffffffffffffffffffffffffffffffffffffffffffffffff167bffffffffffffffffffffffffffffffffffffffffffffffffffffffff16815260200160008201601c9054906101000a900463ffffffff1663ffffffff1663ffffffff1681526020016001820160009054906101000a900473ffffffffffffffffffffffffffffffffffffffff1673ffffffffffffffffffffffffffffffffffffffff1673ffffffffffffffffffffffffffffffffffffffff1681525050905061161f81600001517bffffffffffffffffffffffffffffffffffffffffffffffffffffffff16610a70565b81602001518260400151935093509350509193909250565b61164033612c5f565b15611680576040517f08c379a000000000000000000000000000000000000000000000000000000000815260040161167790613ff0565b60405180910390fd5b3273ffffffffffffffffffffffffffffffffffffffff163373ffffffffffffffffffffffffffffffffffffffff16146116ee576040517f08c379a00000000000000000000000000000000000000000000000000000000081526004016116e59061405c565b60405180910390fd5b426010541115611733576040517f08c379a000000000000000000000000000000000000000000000000000000000815260040161172a906146ff565b60405180910390fd5b6001600381111561174757611746613928565b5b600e60009054906101000a900460ff16600381111561176957611768613928565b5b146117a9576040517f08c379a00000000000000000000000000000000000000000000000000000000081526004016117a09061476b565b60405180910390fd5b6002600e60006101000a81548160ff021916908360038111156117cf576117ce613928565b5b021790555043600781905550565b6117e5612bd8565b6117ef6000612c72565b565b6117fa33612c5f565b1561183a576040517f08c379a000000000000000000000000000000000000000000000000000000000815260040161183190613ff0565b60405180910390fd5b3273ffffffffffffffffffffffffffffffffffffffff163373ffffffffffffffffffffffffffffffffffffffff16146118a8576040517f08c379a000000000000000000000000000000000000000000000000000000000815260040161189f9061405c565b60405180910390fd5b6118b0612bd8565b600260038111156118c4576118c3613928565b5b600e60009054906101000a900460ff1660038111156118e6576118e5613928565b5b14611926576040517f08c379a000000000000000000000000000000000000000000000000000000000815260040161191d906147d7565b60405180910390fd5b426011541161196a576040517f08c379a000000000000000000000000000000000000000000000000000000000815260040161196190614869565b60405180910390fd5b60075443036119ae576040517f08c379a00000000000000000000000000000000000000000000000000000000081526004016119a590614921565b60405180910390fd5b43600881905550600660009054906101000a900473ffffffffffffffffffffffffffffffffffffffff1673ffffffffffffffffffffffffffffffffffffffff1663ce0d44a5826040518263ffffffff1660e01b8152600401611a1091906137b0565b600060405180830381600087803b158015611a2a57600080fd5b505af1158015611a3e573d6000803e3d6000fd5b5050505050565b611a4d612bd8565b8060028190555050565b600f5481565b611a65612bd8565b600560009054906101000a900473ffffffffffffffffffffffffffffffffffffffff1673ffffffffffffffffffffffffffffffffffffffff1663a9059cbb600360009054906101000a900473ffffffffffffffffffffffffffffffffffffffff16600560009054906101000a900473ffffffffffffffffffffffffffffffffffffffff1673ffffffffffffffffffffffffffffffffffffffff166370a08231306040518263ffffffff1660e01b8152600401611b219190613ec2565b602060405180830381865afa158015611b3e573d6000803e3d6000fd5b505050506040513d601f19601f82011682018060405250810190611b629190614588565b6040518363ffffffff1660e01b8152600401611b7f929190614941565b6020604051808303816000875af1158015611b9e573d6000803e3d6000fd5b505050506040513d601f19601f82011682018060405250810190611bc291906149a2565b50565b611bce33612c5f565b15611c0e576040517f08c379a0000000000000000000000000000000000000000000000000000000008152600401611c0590613ff0565b60405180910390fd5b3273ffffffffffffffffffffffffffffffffffffffff163373ffffffffffffffffffffffffffffffffffffffff1614611c7c576040517f08c379a0000000000000000000000000000000000000000000000000000000008152600401611c739061405c565b60405180910390fd5b611c84612d38565b600380811115611c9757611c96613928565b5b600e60009054906101000a900460ff166003811115611cb957611cb8613928565b5b14611cf9576040517f08c379a0000000000000000000000000000000000000000000000000000000008152600401611cf0906142ed565b60405180910390fd5b60008282905011611d3f576040517f08c379a0000000000000000000000000000000000000000000000000000000008152600401611d3690614a1b565b60405180910390fd5b6011544210611d83576040517f08c379a0000000000000000000000000000000000000000000000000000000008152600401611d7a90614aad565b60405180910390fd5b6000805b83839050811015611f91576000848483818110611da757611da6614241565b5b905060200201359050600b548110611df4576040517f08c379a0000000000000000000000000000000000000000000000000000000008152600401611deb9061466d565b60405180910390fd5b3373ffffffffffffffffffffffffffffffffffffffff16600a600083815260200190815260200160002060010160009054906101000a900473ffffffffffffffffffffffffffffffffffffffff1673ffffffffffffffffffffffffffffffffffffffff1614611e98576040517f08c379a0000000000000000000000000000000000000000000000000000000008152600401611e8f90614b19565b60405180910390fd5b6018600a6000838152602001908152602001600020600001601c9054906101000a900463ffffffff1663ffffffff1660068110611ed857611ed7614241565b5b015483611ee59190614355565b9250600a6000868685818110611efe57611efd614241565b5b905060200201358152602001908152602001600020600080820160006101000a8154907bffffffffffffffffffffffffffffffffffffffffffffffffffffffff021916905560008201601c6101000a81549063ffffffff02191690556001820160006101000a81549073ffffffffffffffffffffffffffffffffffffffff02191690555050508080600101915050611d87565b5060008111611fd5576040517f08c379a0000000000000000000000000000000000000000000000000000000008152600401611fcc90614b85565b60405180910390fd5b6120223382600560009054906101000a900473ffffffffffffffffffffffffffffffffffffffff1673ffffffffffffffffffffffffffffffffffffffff16612d7e9092919063ffffffff16565b3373ffffffffffffffffffffffffffffffffffffffff167fc471ef95ea81f4f24bb1a51ba0bd8904858507d29dfdbde1882413b20fcc36ee8260405161206891906137b0565b60405180910390a250612079612dfd565b5050565b6000600160009054906101000a900473ffffffffffffffffffffffffffffffffffffffff16905090565b601281600681106120b757600080fd5b016000915090505481565b60095481565b60075481565b600360009054906101000a900473ffffffffffffffffffffffffffffffffffffffff1681565b600080604267ffffffffffffffff81111561211257612111613b14565b5b6040519080825280602002602001820160405280156121405781602001602082028036833780820191505090505b5090506000805b600681101561220d57604281604261215f91906144ad565b8661216a91906141a9565b836121759190614355565b61217f91906141a9565b91506101008561218f9190614270565b94505b60008383815181106121a7576121a6614241565b5b602002602001015160ff16146121d75781806121c29061430d565b925050604282106121d257600091505b612192565b60018383815181106121ec576121eb614241565b5b602002602001019060ff16908160ff16815250508080600101915050612147565b506000905060006042905060005b600681101561229d5760018460018461223491906144ad565b8151811061224557612244614241565b5b602002602001015160ff160361228a576001826042856122659190614ba5565b61226f9190614355565b61227991906144ad565b925080806122869061430d565b9150505b818061229590614be7565b92505061221b565b50819350505050919050565b60025481565b6122b7612bd8565b8060108190555050565b6122ca33612c5f565b1561230a576040517f08c379a000000000000000000000000000000000000000000000000000000000815260040161230190613ff0565b60405180910390fd5b3273ffffffffffffffffffffffffffffffffffffffff163373ffffffffffffffffffffffffffffffffffffffff1614612378576040517f08c379a000000000000000000000000000000000000000000000000000000000815260040161236f9061405c565b60405180910390fd5b612380612d38565b6001600381111561239457612393613928565b5b600e60009054906101000a900460ff1660038111156123b6576123b5613928565b5b146123f6576040517f08c379a00000000000000000000000000000000000000000000000000000000081526004016123ed9061476b565b60405180910390fd5b601054421061243a576040517f08c379a000000000000000000000000000000000000000000000000000000000815260040161243190614c5c565b60405180910390fd5b60008282905011612480576040517f08c379a000000000000000000000000000000000000000000000000000000000815260040161247790614cc8565b60405180910390fd5b6000600454838390506124939190614ba5565b905080600560009054906101000a900473ffffffffffffffffffffffffffffffffffffffff1673ffffffffffffffffffffffffffffffffffffffff166370a08231336040518263ffffffff1660e01b81526004016124f19190613ec2565b602060405180830381865afa15801561250e573d6000803e3d6000fd5b505050506040513d601f19601f820116820180604052508101906125329190614588565b1015612573576040517f08c379a000000000000000000000000000000000000000000000000000000000815260040161256a90614d34565b60405180910390fd5b6125c2333083600560009054906101000a900473ffffffffffffffffffffffffffffffffffffffff1673ffffffffffffffffffffffffffffffffffffffff16612e07909392919063ffffffff16565b60005b8383905081101561273d5760405180606001604052808585848181106125ee576125ed614241565b5b905060200201357bffffffffffffffffffffffffffffffffffffffffffffffffffffffff168152602001600063ffffffff1681526020013373ffffffffffffffffffffffffffffffffffffffff16815250600a6000600b60008154809291906126569061430d565b91905055815260200190815260200160002060008201518160000160006101000a8154817bffffffffffffffffffffffffffffffffffffffffffffffffffffffff02191690837bffffffffffffffffffffffffffffffffffffffffffffffffffffffff160217905550602082015181600001601c6101000a81548163ffffffff021916908363ffffffff16021790555060408201518160010160006101000a81548173ffffffffffffffffffffffffffffffffffffffff021916908373ffffffffffffffffffffffffffffffffffffffff16021790555090505080806001019150506125c5565b503373ffffffffffffffffffffffffffffffffffffffff167fe23b461eeed3050b94c37e728bd38158dbcd40bb83994f44bfb639678c6a10298484905060405161278791906137b0565b60405180910390a250612798612dfd565b5050565b6127a533612c5f565b156127e5576040517f08c379a00000000000000000000000000000000000000000000000000000000081526004016127dc90613ff0565b60405180910390fd5b3273ffffffffffffffffffffffffffffffffffffffff163373ffffffffffffffffffffffffffffffffffffffff1614612853576040517f08c379a000000000000000000000000000000000000000000000000000000000815260040161284a9061405c565b60405180910390fd5b61285b612bd8565b6002600381111561286f5761286e613928565b5b600e60009054906101000a900460ff16600381111561289157612890613928565b5b146128d1576040517f08c379a00000000000000000000000000000000000000000000000000000000081526004016128c8906147d7565b60405180910390fd5b4260115411612915576040517f08c379a000000000000000000000000000000000000000000000000000000000815260040161290c90614869565b60405180910390fd5b6008544303612959576040517f08c379a000000000000000000000000000000000000000000000000000000000815260040161295090614dec565b60405180910390fd5b6003600e60006101000a81548160ff0219169083600381111561297f5761297e613928565b5b02179055506000600660009054906101000a900473ffffffffffffffffffffffffffffffffffffffff1673ffffffffffffffffffffffffffffffffffffffff166389c16e08836040518263ffffffff1660e01b81526004016129e191906137b0565b6020604051808303816000875af1158015612a00573d6000803e3d6000fd5b505050506040513d601f19601f82011682018060405250810190612a249190614588565b9050612a2f816120f4565b601e81905550612a3d612e89565b5050565b601e5481565b600660009054906101000a900473ffffffffffffffffffffffffffffffffffffffff1681565b612a75612bd8565b8060118190555050565b60085481565b612a8d612bd8565b80600360006101000a81548173ffffffffffffffffffffffffffffffffffffffff021916908373ffffffffffffffffffffffffffffffffffffffff1602179055508073ffffffffffffffffffffffffffffffffffffffff167f8b4531436af204a864adc47c345e10cb5c4df79165aa0cb85fc45ac5b551517b60405160405180910390a250565b612b1c612bd8565b600073ffffffffffffffffffffffffffffffffffffffff168173ffffffffffffffffffffffffffffffffffffffff1603612b8e5760006040517f1e4fbdf7000000000000000000000000000000000000000000000000000000008152600401612b859190613ec2565b60405180910390fd5b612b9781612c72565b50565b600560009054906101000a900473ffffffffffffffffffffffffffffffffffffffff1681565b6000612bd3612bce33610e05565b610fda565b905090565b612be06133fc565b73ffffffffffffffffffffffffffffffffffffffff16612bfe61207d565b73ffffffffffffffffffffffffffffffffffffffff1614612c5d57612c216133fc565b6040517f118cdaa7000000000000000000000000000000000000000000000000000000008152600401612c549190613ec2565b60405180910390fd5b565b600080823b905060008111915050919050565b6000600160009054906101000a900473ffffffffffffffffffffffffffffffffffffffff16905081600160006101000a81548173ffffffffffffffffffffffffffffffffffffffff021916908373ffffffffffffffffffffffffffffffffffffffff1602179055508173ffffffffffffffffffffffffffffffffffffffff168173ffffffffffffffffffffffffffffffffffffffff167f8be0079c531659141344cd1fd0a4f28419497f9722a3daafe3b4186f6b6457e060405160405180910390a35050565b600260005403612d74576040517f3ee5aeb500000000000000000000000000000000000000000000000000000000815260040160405180910390fd5b6002600081905550565b612df8838473ffffffffffffffffffffffffffffffffffffffff1663a9059cbb8585604051602401612db1929190614941565b604051602081830303815290604052915060e01b6020820180517bffffffffffffffffffffffffffffffffffffffffffffffffffffffff8381831617835250505050613404565b505050565b6001600081905550565b612e83848573ffffffffffffffffffffffffffffffffffffffff166323b872dd868686604051602401612e3c93929190614e0c565b604051602081830303815290604052915060e01b6020820180517bffffffffffffffffffffffffffffffffffffffffffffffffffffffff8381831617835250505050613404565b50505050565b6000600667ffffffffffffffff811115612ea657612ea5613b14565b5b604051908082528060200260200182016040528015612ed45781602001602082028036833780820191505090505b50905060005b600b548110156130ce576000600a600083815260200190815260200160002090506000601e54905060008260000160009054906101000a90047bffffffffffffffffffffffffffffffffffffffffffffffffffffffff167bffffffffffffffffffffffffffffffffffffffffffffffffffffffff1690506000805b6006811015612fb757604283612f6b91906141a9565b604285612f7891906141a9565b03612f8c578180612f8890614e43565b9250505b604284612f999190614270565b9350604283612fa89190614270565b92508080600101915050612f55565b5060008163ffffffff16111561303957600181612fd49190614e6f565b84600001601c6101000a81548163ffffffff021916908363ffffffff160217905550856001826130049190614e6f565b63ffffffff168151811061301b5761301a614241565b5b6020026020010180518091906130309061430d565b815250506130bd565b600a6000868152602001908152602001600020600080820160006101000a8154907bffffffffffffffffffffffffffffffffffffffffffffffffffffffff021916905560008201601c6101000a81549063ffffffff02191690556001820160006101000a81549073ffffffffffffffffffffffffffffffffffffffff021916905550505b505050508080600101915050612eda565b506000600954600560009054906101000a900473ffffffffffffffffffffffffffffffffffffffff1673ffffffffffffffffffffffffffffffffffffffff166370a08231306040518263ffffffff1660e01b815260040161312f9190613ec2565b602060405180830381865afa15801561314c573d6000803e3d6000fd5b505050506040513d601f19601f820116820180604052508101906131709190614588565b61317a91906144ad565b9050600060646002548361318e9190614ba5565b6131989190614270565b9050600560009054906101000a900473ffffffffffffffffffffffffffffffffffffffff1673ffffffffffffffffffffffffffffffffffffffff1663a9059cbb600360009054906101000a900473ffffffffffffffffffffffffffffffffffffffff16836040518363ffffffff1660e01b8152600401613219929190614941565b6020604051808303816000875af1158015613238573d6000803e3d6000fd5b505050506040513d601f19601f8201168201806040525081019061325c91906149a2565b50808261326991906144ad565b915060005b60058110156132fe57600084828151811061328c5761328b614241565b5b60200260200101519050600081146132f057806064601284600681106132b5576132b4614241565b5b0154866132c29190614ba5565b6132cc9190614270565b6132d69190614270565b601883600681106132ea576132e9614241565b5b01819055505b50808060010191505061326e565b5060008360058151811061331557613314614241565b5b60200260200101511461339e578260058151811061333657613335614241565b5b60200260200101516064601260056006811061335557613354614241565b5b0154846133629190614ba5565b61336c9190614270565b6009546133799190614355565b6133839190614270565b601860056006811061339857613397614241565b5b01819055505b600f547f9d53f2b115229c0fb6c01a6dcc67fcc582e8eea41b8d0318191c52190c9d3de6601e54856005815181106133d9576133d8614241565b5b60200260200101516040516133ef929190614ea7565b60405180910390a2505050565b600033905090565b600061342f828473ffffffffffffffffffffffffffffffffffffffff1661349b90919063ffffffff16565b9050600081511415801561345457508080602001905181019061345291906149a2565b155b1561349657826040517f5274afe700000000000000000000000000000000000000000000000000000000815260040161348d9190613ec2565b60405180910390fd5b505050565b60606134a9838360006134b1565b905092915050565b6060814710156134f857306040517fcd7860590000000000000000000000000000000000000000000000000000000081526004016134ef9190613ec2565b60405180910390fd5b6000808573ffffffffffffffffffffffffffffffffffffffff1684866040516135219190614f41565b60006040518083038185875af1925050503d806000811461355e576040519150601f19603f3d011682016040523d82523d6000602084013e613563565b606091505b509150915061357386838361357e565b925050509392505050565b6060826135935761358e8261360d565b613605565b600082511480156135bb575060008473ffffffffffffffffffffffffffffffffffffffff163b145b156135fd57836040517f9996b3150000000000000000000000000000000000000000000000000000000081526004016135f49190613ec2565b60405180910390fd5b819050613606565b5b9392505050565b6000815111156136205780518082602001fd5b6040517f1425ea4200000000000000000000000000000000000000000000000000000000815260040160405180910390fd5b6040518060c00160405280600690602082028036833780820191505090505090565b82600681019282156136a3579160200282015b828111156136a2578251825591602001919060010190613687565b5b5090506136b091906136b4565b5090565b5b808211156136cd5760008160009055506001016136b5565b5090565b600060069050919050565b600081905092915050565b6000819050919050565b6000819050919050565b613704816136f1565b82525050565b600061371683836136fb565b60208301905092915050565b6000602082019050919050565b613738816136d1565b61374281846136dc565b925061374d826136e7565b8060005b8381101561377e578151613765878261370a565b965061377083613722565b925050600181019050613751565b505050505050565b600060c08201905061379b600083018461372f565b92915050565b6137aa816136f1565b82525050565b60006020820190506137c560008301846137a1565b92915050565b6000604051905090565b600080fd5b600080fd5b6137e8816136f1565b81146137f357600080fd5b50565b600081359050613805816137df565b92915050565b600060208284031215613821576138206137d5565b5b600061382f848285016137f6565b91505092915050565b600081519050919050565b600082825260208201905092915050565b6000819050602082019050919050565b600063ffffffff82169050919050565b61387d81613864565b82525050565b600061388f8383613874565b60208301905092915050565b6000602082019050919050565b60006138b382613838565b6138bd8185613843565b93506138c883613854565b8060005b838110156138f95781516138e08882613883565b97506138eb8361389b565b9250506001810190506138cc565b5085935050505092915050565b6000602082019050818103600083015261392081846138a8565b905092915050565b7f4e487b7100000000000000000000000000000000000000000000000000000000600052602160045260246000fd5b6004811061396857613967613928565b5b50565b600081905061397982613957565b919050565b60006139898261396b565b9050919050565b6139998161397e565b82525050565b60006020820190506139b46000830184613990565b92915050565b600073ffffffffffffffffffffffffffffffffffffffff82169050919050565b60006139e5826139ba565b9050919050565b6139f5816139da565b8114613a0057600080fd5b50565b600081359050613a12816139ec565b92915050565b600060208284031215613a2e57613a2d6137d5565b5b6000613a3c84828501613a03565b91505092915050565b600081519050919050565b600082825260208201905092915050565b6000819050602082019050919050565b6000602082019050919050565b6000613a8982613a45565b613a938185613a50565b9350613a9e83613a61565b8060005b83811015613acf578151613ab6888261370a565b9750613ac183613a71565b925050600181019050613aa2565b5085935050505092915050565b60006020820190508181036000830152613af68184613a7e565b905092915050565b600080fd5b6000601f19601f8301169050919050565b7f4e487b7100000000000000000000000000000000000000000000000000000000600052604160045260246000fd5b613b4c82613b03565b810181811067ffffffffffffffff82111715613b6b57613b6a613b14565b5b80604052505050565b6000613b7e6137cb565b9050613b8a8282613b43565b919050565b600067ffffffffffffffff821115613baa57613ba9613b14565b5b602082029050602081019050919050565b600080fd5b6000613bd3613bce84613b8f565b613b74565b90508083825260208201905060208402830185811115613bf657613bf5613bbb565b5b835b81811015613c1f5780613c0b88826137f6565b845260208401935050602081019050613bf8565b5050509392505050565b600082601f830112613c3e57613c3d613afe565b5b8135613c4e848260208601613bc0565b91505092915050565b600060208284031215613c6d57613c6c6137d5565b5b600082013567ffffffffffffffff811115613c8b57613c8a6137da565b5b613c9784828501613c29565b91505092915050565b60008060408385031215613cb757613cb66137d5565b5b6000613cc5858286016137f6565b9250506020613cd6858286016137f6565b9150509250929050565b600067ffffffffffffffff821115613cfb57613cfa613b14565b5b602082029050919050565b6000613d19613d1484613ce0565b613b74565b90508060208402830185811115613d3357613d32613bbb565b5b835b81811015613d5c5780613d4888826137f6565b845260208401935050602081019050613d35565b5050509392505050565b600082601f830112613d7b57613d7a613afe565b5b6006613d88848285613d06565b91505092915050565b600060c08284031215613da757613da66137d5565b5b6000613db584828501613d66565b91505092915050565b613dc781613864565b82525050565b613dd6816139da565b82525050565b60006060820190508181036000830152613df681866138a8565b9050613e056020830185613dbe565b613e126040830184613dcd565b949350505050565b600080fd5b60008083601f840112613e3557613e34613afe565b5b8235905067ffffffffffffffff811115613e5257613e51613e1a565b5b602083019150836020820283011115613e6e57613e6d613bbb565b5b9250929050565b60008060208385031215613e8c57613e8b6137d5565b5b600083013567ffffffffffffffff811115613eaa57613ea96137da565b5b613eb685828601613e1f565b92509250509250929050565b6000602082019050613ed76000830184613dcd565b92915050565b6000819050919050565b6000613f02613efd613ef8846139ba565b613edd565b6139ba565b9050919050565b6000613f1482613ee7565b9050919050565b6000613f2682613f09565b9050919050565b613f3681613f1b565b82525050565b6000602082019050613f516000830184613f2d565b92915050565b6000613f6282613f09565b9050919050565b613f7281613f57565b82525050565b6000602082019050613f8d6000830184613f69565b92915050565b600082825260208201905092915050565b7f436f6e7472616374206e6f7420616c6c6f776564000000000000000000000000600082015250565b6000613fda601483613f93565b9150613fe582613fa4565b602082019050919050565b6000602082019050818103600083015261400981613fcd565b9050919050565b7f50726f787920636f6e7472616374206e6f7420616c6c6f776564000000000000600082015250565b6000614046601a83613f93565b915061405182614010565b602082019050919050565b6000602082019050818103600083015261407581614039565b9050919050565b7f4c6f747465727920616c72656164792073746172746564000000000000000000600082015250565b60006140b2601783613f93565b91506140bd8261407c565b602082019050919050565b600060208201905081810360008301526140e1816140a5565b9050919050565b7f43616e6e6f74207374617274206c6f7474657279206265666f7265207374617260008201527f7454696d65000000000000000000000000000000000000000000000000000000602082015250565b6000614144602583613f93565b915061414f826140e8565b604082019050919050565b6000602082019050818103600083015261417381614137565b9050919050565b7f4e487b7100000000000000000000000000000000000000000000000000000000600052601260045260246000fd5b60006141b4826136f1565b91506141bf836136f1565b9250826141cf576141ce61417a565b5b828206905092915050565b7f4e487b7100000000000000000000000000000000000000000000000000000000600052601160045260246000fd5b600061421482613864565b915061421f83613864565b9250828201905063ffffffff81111561423b5761423a6141da565b5b92915050565b7f4e487b7100000000000000000000000000000000000000000000000000000000600052603260045260246000fd5b600061427b826136f1565b9150614286836136f1565b9250826142965761429561417a565b5b828204905092915050565b7f4c6f7474657279206e6f7420636c61696d61626c650000000000000000000000600082015250565b60006142d7601583613f93565b91506142e2826142a1565b602082019050919050565b60006020820190508181036000830152614306816142ca565b9050919050565b6000614318826136f1565b91507fffffffffffffffffffffffffffffffffffffffffffffffffffffffffffffffff820361434a576143496141da565b5b600182019050919050565b6000614360826136f1565b915061436b836136f1565b9250828201905080821115614383576143826141da565b5b92915050565b7f43616e6e6f74207265736574206265666f726520656e6452657761726454696d60008201527f6500000000000000000000000000000000000000000000000000000000000000602082015250565b60006143e5602183613f93565b91506143f082614389565b604082019050919050565b60006020820190508181036000830152614414816143d8565b9050919050565b7f43616e6e6f742072657365742077697468203020737461727454696d6520616e60008201527f6420656e6454696d650000000000000000000000000000000000000000000000602082015250565b6000614477602983613f93565b91506144828261441b565b604082019050919050565b600060208201905081810360008301526144a68161446a565b9050919050565b60006144b8826136f1565b91506144c3836136f1565b92508282039050818111156144db576144da6141da565b5b92915050565b7f43616e6e6f74207374617274207769746820737461727454696d6520696e207460008201527f6865207061737400000000000000000000000000000000000000000000000000602082015250565b600061453d602783613f93565b9150614548826144e1565b604082019050919050565b6000602082019050818103600083015261456c81614530565b9050919050565b600081519050614582816137df565b92915050565b60006020828403121561459e5761459d6137d5565b5b60006145ac84828501614573565b91505092915050565b7f43616e2774206368616e67652072657761726473206e6f770000000000000000600082015250565b60006145eb601883613f93565b91506145f6826145b5565b602082019050919050565b6000602082019050818103600083015261461a816145de565b9050919050565b7f496e76616c6964207469636b6574496400000000000000000000000000000000600082015250565b6000614657601083613f93565b915061466282614621565b602082019050919050565b600060208201905081810360008301526146868161464a565b9050919050565b7f43616e6e6f7420636c6f7365206c6f7474657279206265666f726520656e645460008201527f696d650000000000000000000000000000000000000000000000000000000000602082015250565b60006146e9602383613f93565b91506146f48261468d565b604082019050919050565b60006020820190508181036000830152614718816146dc565b9050919050565b7f4c6f7474657279206e6f74206f70656e00000000000000000000000000000000600082015250565b6000614755601083613f93565b91506147608261471f565b602082019050919050565b6000602082019050818103600083015261478481614748565b9050919050565b7f4c6f7474657279206e6f7420636c6f7365640000000000000000000000000000600082015250565b60006147c1601283613f93565b91506147cc8261478b565b602082019050919050565b600060208201905081810360008301526147f0816147b4565b9050919050565b7f43616e6e6f742064726177206c6f747465727920616674657220656e6452657760008201527f61726454696d6500000000000000000000000000000000000000000000000000602082015250565b6000614853602783613f93565b915061485e826147f7565b604082019050919050565b6000602082019050818103600083015261488281614846565b9050919050565b7f7265717565737452616e646f6d6e6573732063616e6e6f742062652063616c6c60008201527f656420696e207468652073616d6520626c6f636b20617320636c6f73654c6f7460208201527f7465727900000000000000000000000000000000000000000000000000000000604082015250565b600061490b604483613f93565b915061491682614889565b606082019050919050565b6000602082019050818103600083015261493a816148fe565b9050919050565b60006040820190506149566000830185613dcd565b61496360208301846137a1565b9392505050565b60008115159050919050565b61497f8161496a565b811461498a57600080fd5b50565b60008151905061499c81614976565b92915050565b6000602082840312156149b8576149b76137d5565b5b60006149c68482850161498d565b91505092915050565b7f43616e6e6f7420636c61696d2030207469636b65747300000000000000000000600082015250565b6000614a05601683613f93565b9150614a10826149cf565b602082019050919050565b60006020820190508181036000830152614a34816149f8565b9050919050565b7f43616e6e6f7420636c61696d207469636b65747320616674657220656e64526560008201527f7761726454696d65000000000000000000000000000000000000000000000000602082015250565b6000614a97602883613f93565b9150614aa282614a3b565b604082019050919050565b60006020820190508181036000830152614ac681614a8a565b9050919050565b7f4e6f7420746865206f776e6572206f6620746865207469636b65740000000000600082015250565b6000614b03601b83613f93565b9150614b0e82614acd565b602082019050919050565b60006020820190508181036000830152614b3281614af6565b9050919050565b7f4e6f207265776172640000000000000000000000000000000000000000000000600082015250565b6000614b6f600983613f93565b9150614b7a82614b39565b602082019050919050565b60006020820190508181036000830152614b9e81614b62565b9050919050565b6000614bb0826136f1565b9150614bbb836136f1565b9250828202614bc9816136f1565b91508282048414831517614be057614bdf6141da565b5b5092915050565b6000614bf2826136f1565b915060008203614c0557614c046141da565b5b600182039050919050565b7f43616e6e6f7420627579207469636b65747320616674657220656e6454696d65600082015250565b6000614c46602083613f93565b9150614c5182614c10565b602082019050919050565b60006020820190508181036000830152614c7581614c39565b9050919050565b7f43616e6e6f74206275792030207469636b657473000000000000000000000000600082015250565b6000614cb2601483613f93565b9150614cbd82614c7c565b602082019050919050565b60006020820190508181036000830152614ce181614ca5565b9050919050565b7f4e6f7420656e6f7567682055534420746f20627579207469636b657400000000600082015250565b6000614d1e601c83613f93565b9150614d2982614ce8565b602082019050919050565b60006020820190508181036000830152614d4d81614d11565b9050919050565b7f72657665616c52616e646f6d6e6573732063616e6e6f742062652063616c6c6560008201527f6420696e207468652073616d6520626c6f636b2061732072657175657374526160208201527f6e646f6d6e657373000000000000000000000000000000000000000000000000604082015250565b6000614dd6604883613f93565b9150614de182614d54565b606082019050919050565b60006020820190508181036000830152614e0581614dc9565b9050919050565b6000606082019050614e216000830186613dcd565b614e2e6020830185613dcd565b614e3b60408301846137a1565b949350505050565b6000614e4e82613864565b915063ffffffff8203614e6457614e636141da565b5b600182019050919050565b6000614e7a82613864565b9150614e8583613864565b9250828203905063ffffffff811115614ea157614ea06141da565b5b92915050565b6000604082019050614ebc60008301856137a1565b614ec960208301846137a1565b9392505050565b600081519050919050565b600081905092915050565b60005b83811015614f04578082015181840152602081019050614ee9565b60008484015250505050565b6000614f1b82614ed0565b614f258185614edb565b9350614f35818560208601614ee6565b80840191505092915050565b6000614f4d8284614f10565b91508190509291505056fea2646970667358221220b41a3764c22ad54eeed9774864b6dab1b44706a5ab063738e8562ed44d50a21d64736f6c63430008180033",
  "linkReferences": {},
  "deployedLinkReferences": {}
}