{
  "_format": "hh-sol-artifact-1",
  "contractName": "RandomNumberGenerator",
  "sourceName": "contracts/RandomNumberGenerator.sol",
  "abi": [
    {
      "inputs": [
        {
          "internalType": "address",
          "name": "owner",
          "type": "address"
        }
      ],
      "name": "OwnableInvalidOwner",
      "type": "error"
    },
    {
      "inputs": [
        {
          "internalType": "address",
          "name": "account",
          "type": "address"
        }
      ],
      "name": "OwnableUnauthorizedAccount",
      "type": "error"
    },
    {
      "anonymous": false,
      "inputs": [
        {
          "indexed": true,
          "internalType": "address",
          "name": "previousOwner",
          "type": "address"
        },
        {
          "indexed": true,
          "internalType": "address",
          "name": "newOwner",
          "type": "address"
        }
      ],
      "name": "OwnershipTransferred",
      "type": "event"
    },
    {
      "inputs": [],
      "name": "owner",
      "outputs": [
        {
          "internalType": "address",
          "name": "",
          "type": "address"
        }
      ],
      "stateMutability": "view",
      "type": "function"
    },
    {
      "inputs": [],
      "name": "randomResult",
      "outputs": [
        {
          "internalType": "uint256",
          "name": "",
          "type": "uint256"
        }
      ],
      "stateMutability": "view",
      "type": "function"
    },
    {
      "inputs": [],
      "name": "renounceOwnership",
      "outputs": [],
      "stateMutability": "nonpayable",
      "type": "function"
    },
    {
      "inputs": [
        {
          "internalType": "uint256",
          "name": "_seedHash",
          "type": "uint256"
        }
      ],
      "name": "requestRandomValue",
      "outputs": [],
      "stateMutability": "nonpayable",
      "type": "function"
    },
    {
      "inputs": [
        {
          "internalType": "uint256",
          "name": "_seed",
          "type": "uint256"
        }
      ],
      "name": "revealRandomValue",
      "outputs": [
        {
          "internalType": "uint256",
          "name": "",
          "type": "uint256"
        }
      ],
      "stateMutability": "nonpayable",
      "type": "function"
    },
    {
      "inputs": [
        {
          "internalType": "address",
          "name": "newOwner",
          "type": "address"
        }
      ],
      "name": "transferOwnership",
      "outputs": [],
      "stateMutability": "nonpayable",
      "type": "function"
    },
    {
      "inputs": [],
      "name": "viewRandomResult",
      "outputs": [
        {
          "internalType": "uint256",
          "name": "",
          "type": "uint256"
        }
      ],
      "stateMutability": "view",
      "type": "function"
    }
  ],
  "bytecode": "0x608060405234801561001057600080fd5b5033600073ffffffffffffffffffffffffffffffffffffffff168173ffffffffffffffffffffffffffffffffffffffff16036100845760006040517f1e4fbdf700000000000000000000000000000000000000000000000000000000815260040161007b919061019e565b60405180910390fd5b6100938161009960201b60201c565b506101b9565b60008060009054906101000a900473ffffffffffffffffffffffffffffffffffffffff169050816000806101000a81548173ffffffffffffffffffffffffffffffffffffffff021916908373ffffffffffffffffffffffffffffffffffffffff1602179055508173ffffffffffffffffffffffffffffffffffffffff168173ffffffffffffffffffffffffffffffffffffffff167f8be0079c531659141344cd1fd0a4f28419497f9722a3daafe3b4186f6b6457e060405160405180910390a35050565b600073ffffffffffffffffffffffffffffffffffffffff82169050919050565b60006101888261015d565b9050919050565b6101988161017d565b82525050565b60006020820190506101b3600083018461018f565b92915050565b61084d806101c86000396000f3fe608060405234801561001057600080fd5b506004361061007d5760003560e01c80638da5cb5b1161005b5780638da5cb5b146100da578063a1c4f55a146100f8578063ce0d44a514610116578063f2fde38b146101325761007d565b806342619f6614610082578063715018a6146100a057806389c16e08146100aa575b600080fd5b61008a61014e565b604051610097919061050c565b60405180910390f35b6100a8610154565b005b6100c460048036038101906100bf9190610558565b610168565b6040516100d1919061050c565b60405180910390f35b6100e26102c1565b6040516100ef91906105c6565b60405180910390f35b6101006102ea565b60405161010d919061050c565b60405180910390f35b610130600480360381019061012b9190610558565b6102f4565b005b61014c6004803603810190610147919061060d565b61031a565b005b60045481565b61015c6103a0565b6101666000610427565b565b60006101726103a0565b6000600154141580156101885750600060025414155b6101c7576040517f08c379a00000000000000000000000000000000000000000000000000000000081526004016101be90610697565b60405180910390fd5b600354431161020b576040517f08c379a000000000000000000000000000000000000000000000000000000000815260040161020290610729565b60405180910390fd5b60008260405160200161021e919061076a565b6040516020818303038152906040528051906020012060001c9050600154811461027d576040517f08c379a0000000000000000000000000000000000000000000000000000000008152600401610274906107f7565b60405180910390fd5b600354408360025418604051602001610296919061076a565b604051602081830303815290604052805190602001201860001c600481905550600454915050919050565b60008060009054906101000a900473ffffffffffffffffffffffffffffffffffffffff16905090565b6000600454905090565b6102fc6103a0565b80600181905550600154424418186002819055504360038190555050565b6103226103a0565b600073ffffffffffffffffffffffffffffffffffffffff168173ffffffffffffffffffffffffffffffffffffffff16036103945760006040517f1e4fbdf700000000000000000000000000000000000000000000000000000000815260040161038b91906105c6565b60405180910390fd5b61039d81610427565b50565b6103a86104eb565b73ffffffffffffffffffffffffffffffffffffffff166103c66102c1565b73ffffffffffffffffffffffffffffffffffffffff1614610425576103e96104eb565b6040517f118cdaa700000000000000000000000000000000000000000000000000000000815260040161041c91906105c6565b60405180910390fd5b565b60008060009054906101000a900473ffffffffffffffffffffffffffffffffffffffff169050816000806101000a81548173ffffffffffffffffffffffffffffffffffffffff021916908373ffffffffffffffffffffffffffffffffffffffff1602179055508173ffffffffffffffffffffffffffffffffffffffff168173ffffffffffffffffffffffffffffffffffffffff167f8be0079c531659141344cd1fd0a4f28419497f9722a3daafe3b4186f6b6457e060405160405180910390a35050565b600033905090565b6000819050919050565b610506816104f3565b82525050565b600060208201905061052160008301846104fd565b92915050565b600080fd5b610535816104f3565b811461054057600080fd5b50565b6000813590506105528161052c565b92915050565b60006020828403121561056e5761056d610527565b5b600061057c84828501610543565b91505092915050565b600073ffffffffffffffffffffffffffffffffffffffff82169050919050565b60006105b082610585565b9050919050565b6105c0816105a5565b82525050565b60006020820190506105db60008301846105b7565b92915050565b6105ea816105a5565b81146105f557600080fd5b50565b600081359050610607816105e1565b92915050565b60006020828403121561062357610622610527565b5b6000610631848285016105f8565b91505092915050565b600082825260208201905092915050565b7f52616e646f6d4e756d62657247656e657261746f723a206e6f74207265616479600082015250565b600061068160208361063a565b915061068c8261064b565b602082019050919050565b600060208201905081810360008301526106b081610674565b9050919050565b7f52616e646f6d4e756d62657247656e657261746f723a2063616e206e6f74207260008201527f65717565737420616e642072657665616c20696e2073616d6520626c6f636b00602082015250565b6000610713603f8361063a565b915061071e826106b7565b604082019050919050565b6000602082019050818103600083015261074281610706565b9050919050565b6000819050919050565b61076461075f826104f3565b610749565b82525050565b60006107768284610753565b60208201915081905092915050565b7f52616e646f6d4e756d62657247656e657261746f723a2073656564486173682060008201527f6d69736d61746368000000000000000000000000000000000000000000000000602082015250565b60006107e160288361063a565b91506107ec82610785565b604082019050919050565b60006020820190508181036000830152610810816107d4565b905091905056fea26469706673582212209a872447214e4386f9b1d0820d0c321cacaf49b6f838d6649c39985001b7bf2364736f6c63430008180033",
  "linkReferences": {},
  "deployedLinkReferences": {}
}